:020000040000FA
:100000000C945D000C9485000C9485000C94850084
:100010000C9485000C9485000C9485000C9485004C
:100020000C9485000C9485000C9485000C94A1021E
:100030000C9485000C9485000C9485000C9485002C
:100040000C9457020C9485000C9485000C94850048
:100050000C9485000C9485000C9485000C9485000C
:100060000C9485000C94850000000008000201003B
:100070000003040700000000000000000000000072
:10008000250028002B0000000000240027002A0083
:10009000040404040404040402020202020203032E
:1000A0000303030301020408102040800102040836
:1000B0001020010204081020240411241FBECFEFD9
:1000C000D8E0DEBFCDBF11E0A0E0B1E0EEE8FDE09A
:1000D00002C005900D92A030B107D9F721E0A0E051
:1000E000B1E001C01D92A134B207E1F710E0CDE507
:1000F000D0E004C02197FE010E94BF06CC35D10795
:10010000C9F70E945D030C94C5060C9400008F9201
:100110009F92AF92BF92CF92DF92EF92FF92809127
:10012000400158E5C52E52E0D52EC81AD10887FDEA
:10013000D394CC0CDD1CCC0CDD1C0D2C000CEE087B
:10014000FF0880913F0178E8872E912C881A91084A
:1001500087FD9394880C991C880C991C092C000C21
:10016000AA08BB0880913E018F3FD1F190E0FC01CD
:10017000EE0FFF1FE80FF91FE65EFE4F81819281AF
:1001800033E0880F991F3A95E1F7B0E0A0E044E032
:10019000B595A795979587954A95D1F702969C01B5
:1001A0002F5F3F4F032E000C440B550B28193909C4
:1001B0004A095B09A4EBB0E00E94A404A7019601E0
:1001C000281939094A095B090E948504C901FF9071
:1001D000EF90DF90CF90BF90AF909F908F90089559
:1001E00090E080E0DCCF90E0FC01EC55FF4F2491E3
:1001F00080579F4FFC018491882399F090E0880FED
:10020000991FFC01EA57FF4FA591B491FC01E458F6
:10021000FF4F859194918FB7F894EC91E22BEC937A
:100220008FBF089590E0FC01E859FF4F2491FC0135
:10023000EC55FF4F3491FC01E057FF4FE491EE2362
:10024000C9F0222339F0233001F1A8F4213019F14B
:10025000223029F1F0E0EE0FFF1FE458FF4FA59187
:10026000B4918FB7F894EC91611126C030953E237C
:100270003C938FBF08952730A9F02830C9F024306F
:1002800049F7809180008F7D03C0809180008F7737
:1002900080938000DFCF84B58F7784BDDBCF84B5BA
:1002A0008F7DFBCF8091B0008F778093B000D2CF4D
:1002B0008091B0008F7DF9CF3E2BDACF3FB7F89415
:1002C0008091160190911701A0911801B091190128
:1002D00026B5A89B05C02F3F19F00196A11DB11DA1
:1002E0003FBFBA2FA92F982F8827BC01CD01620FDD
:1002F000711D811D911D42E0660F771F881F991F98
:100300004A95D1F708958F929F92AF92BF92CF9264
:10031000DF92EF92FF926B017C010E945E014B0124
:100320005C01C114D104E104F104B9F00E945E0142
:10033000681979098A099B09683E7340810591050E
:1003400080F321E0C21AD108E108F10888EE880E96
:1003500083E0981EA11CB11CE4CFFF90EF90DF90CA
:10036000CF90BF90AF909F908F9008954F925F92E3
:100370006F927F929F92AF92BF92CF92DF92EF9255
:10038000FF920F931F93CF93DF935C010E9487002E
:100390009501281B390BC901181619060CF082C0EB
:1003A0000E9487009501281B390BC901BC01990FD8
:1003B000880B990B0E94FF052FE832EC45EF5DE3B7
:1003C0000E94550520E030E040E05FE30E94E90430
:1003D0000E94C7056B0190903E013BE0391508F47F
:1003E0004CC08091400108E512E0081B110987FD0F
:1003F0001395000F111F000F111F80913F01C8E8D6
:10040000D0E0C81BD10987FDD395CC0FDD1FCC0FE1
:10041000DD1F2E010D2E000C660877089801012EB5
:10042000000C440B550B2419350946095709D50111
:100430000E94AF0424EB30E040E050E00E948504CD
:10044000420E531E641E751E4C165D062CF0E8010C
:10045000401651060CF4E2012297CC0FDD1F2FB796
:10046000F894892D90E0FC01EE0FFF1FE80FF91FB3
:10047000E65EFE4FD283C1832FBFB601DD0C880B31
:10048000990BDF91CF911F910F91FF90EF90DF902B
:10049000CF90BF90AF909F907F906F905F904F9064
:1004A0000C9483010E9487008A199B097FCF1F92B9
:1004B0000F920FB60F9211242F933F938F939F9318
:1004C000AF93BF938091120190911301A0911401F9
:1004D000B09115013091110123E0230F2D3758F50C
:1004E0000196A11DB11D20931101809312019093DB
:1004F0001301A0931401B0931501809116019091FE
:100500001701A0911801B09119010196A11DB11D0B
:100510008093160190931701A0931801B0931901CD
:10052000BF91AF919F918F913F912F910F900FBEEF
:100530000F901F90189526E8230F0296A11DB11D5C
:10054000D2CF1F920F920FB60F9211242F933F9389
:100550004F935F936F937F938F939F93AF93BF93CB
:10056000CF93DF93EF93FF9380910C01C0910B0128
:10057000D0E087FF24C01092850010928400809103
:100580000C018F5F80930C0180910C01082E000CF0
:10059000990B8C179D0724F480910C018C30C4F1C9
:1005A0008091840090918500049680349C4908F4E1
:1005B0007AC08091840090918500049676C08091E5
:1005C0000C01082E000C990B8C179D07C4F6E091C6
:1005D0000C018E2FEE0F990BFC01EE0FFF1FE80FA1
:1005E000F91FE65EFE4F808186FFC9CFE0910C01C6
:1005F0008E2FEE0F990BFC01EE0FFF1FE80FF91F76
:10060000E65EFE4F808160E08F730E941201B7CFDB
:100610002091840030918500E0910C018E2FEE0F27
:10062000990BFC01EE0FFF1FE80FF91FE65EFE4F6E
:1006300081819281820F931F90938900809388001B
:10064000E0910C018E2FEE0F990BFC01EE0FFF1FB6
:10065000E80FF91FE65EFE4F808186FF11C0E09132
:100660000C018E2FEE0F990BFC01EE0FFF1FE80F10
:10067000F91FE65EFE4F808161E08F730E941201D8
:10068000FF91EF91DF91CF91BF91AF919F918F91AA
:100690007F916F915F914F913F912F910F900FBE7E
:1006A0000F901F90189580E49CE9909389008093A7
:1006B00088008FEF80930C01E3CF789484B582603B
:1006C00084BD84B5816084BD85B5826085BD85B5F6
:1006D000816085BD80916E00816080936E00109274
:1006E00081008091810082608093810080918100EF
:1006F0008160809381008091800081608093800080
:100700008091B10084608093B1008091B0008160DD
:100710008093B00080917A00846080937A00809109
:100720007A00826080937A0080917A008160809361
:100730007A0080917A00806880937A001092C100DC
:10074000C0910D0180913E018C3008F051C08C2F7A
:100750000E94F30080913E01282F30E0F901EE0F56
:10076000FF1FE20FF31FE65EFE4FCF739081907C78
:100770009C2B908310923F01109240012CE0622F3D
:100780000E948B06829FB001112430E020E0AB0173
:10079000420F531FFA01EE0FFF1FE40FF51FE65E35
:1007A000FE4F908196FD16C02F5F3F4F2C303105D4
:1007B00071F781110FC01092800082E08093810058
:1007C0001092850010928400B19A80916F0082602F
:1007D00080936F00E0913E018E2F90E0FC01EE0FC0
:1007E000FF1FE80FF91FE65EFE4F80818064808363
:1007F00008EE13E080E0E82E80E0F82EC0910F01B3
:10080000D0911001CE01B8010E949706892B41F4C6
:100810000E948700892BA9F48AE590E00E94B60126
:100820002196D0931001C0930F0161E070E080E049
:1008300090E00E948301E114F10401F30E940000A2
:10084000DDCF90E080E0EACF80910B018C3008F0A2
:1008500054C091E0980F90930B0180933E0190E07B
:10086000FC01EE0FFF1FE80FF91FE65EFE4F88EB5D
:100870009BE09283818380910B018C3008F041C012
:1008800091E0980F90930B018093080190E0FC0198
:10089000EE0FFF1FE80FF91FE65EFE4F88EB9BE0AF
:1008A0009283818388E090E090930E0180930D0104
:1008B00084E090E0909303018093020185E090E052
:1008C000909305018093040186E090E090930701E6
:1008D0008093060184E00E94F300809104010E944D
:1008E000F300809106010E94F30087E090E090936E
:1008F0000101809300010C94F3008FEF80933E017F
:10090000BACF8FEF80930801CDCF052E97FB1EF451
:1009100000940E949C0457FD07D00E94B70407FC76
:1009200003D04EF40C949C0450954095309521953D
:100930003F4F4F4F5F4F089590958095709561950B
:100940007F4F8F4F9F4F08950E94D904A59F900D10
:10095000B49F900DA49F800D911D11240895B7FFA1
:100960000C94A4040E94A404821B930B0895A1E29A
:100970001A2EAA1BBB1BFD010DC0AA1FBB1FEE1F19
:10098000FF1FA217B307E407F50720F0A21BB30B64
:10099000E40BF50B661F771F881F991F1A9469F7E0
:1009A00060957095809590959B01AC01BD01CF013C
:1009B0000895A29FB001B39FC001A39F700D811D38
:1009C0001124911DB29F700D811D1124911D089558
:1009D0005058BB27AA270E9400050C9451060E947C
:1009E000430638F00E944A0620F039F49F3F19F47C
:1009F00026F40C9440060EF4E095E7FB0C943A06BE
:100A0000E92F0E94620658F3BA176207730784073A
:100A1000950720F079F4A6F50C9484060EF4E09581
:100A20000B2EBA2FA02D0B01B90190010C01CA01A8
:100A3000A0011124FF27591B99F0593F50F4503E53
:100A400068F11A16F040A22F232F342F4427585F45
:100A5000F3CF469537952795A795F0405395C9F75D
:100A60007EF41F16BA0B620B730B840BBAF0915015
:100A7000A1F0FF0FBB1F661F771F881FC2F70EC0B4
:100A8000BA0F621F731F841F48F487957795679587
:100A9000B795F7959E3F08F0B0CF9395880F08F073
:100AA0009927EE0F9795879508950E9469050C94F4
:100AB00051060E944A0658F00E94430640F029F46D
:100AC0005F3F29F00C943A0651110C9485060C9462
:100AD00040060E94620668F39923B1F3552391F30F
:100AE000951B550BBB27AA2762177307840738F09D
:100AF0009F5F5F4F220F331F441FAA1FA9F335D0FA
:100B00000E2E3AF0E0E832D091505040E695001CAD
:100B1000CAF72BD0FE2F29D0660F771F881FBB1F67
:100B2000261737074807AB07B0E809F0BB0B802D45
:100B3000BF01FF2793585F4F3AF09E3F510578F071
:100B40000C943A060C9485065F3FE4F3983ED4F388
:100B5000869577956795B795F7959F5FC9F7880F45
:100B6000911D9695879597F90895E1E0660F771F97
:100B7000881FBB1F621773078407BA0720F0621B28
:100B8000730B840BBA0BEE1F88F7E09508950E9453
:100B9000CE056894B1110C94850608950E946A06EA
:100BA00088F09F5798F0B92F9927B751B0F0E1F02E
:100BB000660F771F881F991F1AF0BA95C9F714C0DE
:100BC000B13091F00E948406B1E008950C9484063F
:100BD000672F782F8827B85F39F0B93FCCF3869517
:100BE00077956795B395D9F73EF490958095709574
:100BF00061957F4F8F4F9F4F0895E89409C097FBF1
:100C00003EF490958095709561957F4F8F4F9F4FE3
:100C10009923A9F0F92F96E9BB279395F695879527
:100C200077956795B795F111F8CFFAF4BB0F11F4EA
:100C300060FF1BC06F5F7F4F8F4F9F4F16C0882391
:100C400011F096E911C0772321F09EE8872F762FC7
:100C500005C0662371F096E8862F70E060E02AF008
:100C60009A95660F771F881FDAF7880F96958795F4
:100C700097F9089597F99F6780E870E060E008951C
:100C80009FEF80EC089500240A94161617061806A4
:100C90000906089500240A94121613061406050680
:100CA0000895092E0394000C11F4882352F0BB0F11
:100CB00040F4BF2B11F460FF04C06F5F7F4F8F4F74
:100CC0009F4F089557FD9058440F551F59F05F3FAF
:100CD00071F04795880F97FB991F61F09F3F79F05E
:100CE00087950895121613061406551FF2CF4695E0
:100CF000F1DF08C0161617061806991FF1CF869562
:100D00007105610508940895E894BB276627772745
:100D1000CB0197F90895991B79E004C0991F9617A4
:100D200008F0961B881F7A95C9F78095089597FB60
:100D3000072E16F4009407D077FD09D00E94AB0669
:100D400007FC05D03EF4909581959F4F08957095CE
:100D500061957F4F0895AA1BBB1B51E107C0AA1FD5
:100D6000BB1FA617B70710F0A61BB70B881F991F4C
:100D70005A95A9F780959095BC01CD010895EE0F85
:0E0D8000FF1F0590F491E02D0994F894FFCF29
:107E0000112484B714BE81FFF0D085E080938100F7
:107E100082E08093C00088E18093C10086E0809377
:107E2000C20080E18093C4008EE0C9D0259A86E02C
:107E300020E33CEF91E0309385002093840096BBD3
:107E4000B09BFECF1D9AA8958150A9F7CC24DD24C4
:107E500088248394B5E0AB2EA1E19A2EF3E0BF2EE7
:107E6000A2D0813461F49FD0082FAFD0023811F036
:107E7000013811F484E001C083E08DD089C08234E0
:107E800011F484E103C0853419F485E0A6D080C0E4
:107E9000853579F488D0E82EFF2485D0082F10E0AE
:107EA000102F00270E291F29000F111F8ED06801E7
:107EB0006FC0863521F484E090D080E0DECF843638
:107EC00009F040C070D06FD0082F6DD080E0C81688
:107ED00080E7D80618F4F601B7BEE895C0E0D1E017
:107EE00062D089930C17E1F7F0E0CF16F0E7DF06D8
:107EF00018F0F601B7BEE89568D007B600FCFDCFD4
:107F0000A601A0E0B1E02C9130E011968C91119780
:107F100090E0982F8827822B932B1296FA010C0160
:107F200087BEE89511244E5F5F4FF1E0A038BF0790
:107F300051F7F601A7BEE89507B600FCFDCF97BE46
:107F4000E89526C08437B1F42ED02DD0F82E2BD052
:107F50003CD0F601EF2C8F010F5F1F4F84911BD097
:107F6000EA94F801C1F70894C11CD11CFA94CF0C13
:107F7000D11C0EC0853739F428D08EE10CD085E9AC
:107F80000AD08FE07ACF813511F488E018D01DD067
:107F900080E101D065CF982F8091C00085FFFCCF94
:107FA0009093C60008958091C00087FFFCCF809118
:107FB000C00084FD01C0A8958091C6000895E0E648
:107FC000F0E098E1908380830895EDDF803219F02E
:107FD00088E0F5DFFFCF84E1DECF1F93182FE3DFCA
:107FE0001150E9F7F2DF1F91089580E0E8DFEE27F6
:047FF000FF270994CA
:027FFE00040479
:00000001FF
